:1000000045C000004BC0000049C0000047C00000D0
:1000100045C0000043C0000041C000003FC00000D8
:100020003DC000003BC0000039C0000037C00000E8
:1000300035C0000033C0000031C000002FC00000F8
:100040002DC000002BC0000029C0000027C0000008
:1000500025C0000023C0000021C000001FC0000018
:100060001DC000001BC0000019C0000017C0000028
:1000700015C0000013C0000011C000000FC0000038
:100080000DC000000BC0000009C0000011241FBEFD
:10009000CFEFD0E1DEBFCDBFD2D00CC3B1CFCF9276
:1000A000DF92EF92FF920F931F93CF93DF9300D0D5
:1000B00000D01F92CDB7DEB76C01DE01119695E03E
:1000C000FD0111929A95E9F78E9A969AFFEF21EE2B
:1000D00084E0F15020408040E1F700C00000969895
:1000E000AFECB7E01197F1F700C00000969A8E9838
:1000F000B5EDBA95F1F70000869988C0EFE3F1E01D
:100100003197F1F700C00000869B82C08FE391E039
:100110000197F1F700C000008E010F5F1F4F7E01B5
:1001200096E0E90EF11CE1E0F0E027C02150310932
:1001300019F470C029EC30E0869BF8CFA0EAAA95AC
:10014000F1F7869B08C09F01042E02C0220F331FC7
:100150000A94E2F7922B29EC30E004C021503109D7
:1001600009F45AC08699FACF4150510918F7D801BD
:100170009D938D01EA16FB0621F047E050E090E0E8
:10018000D9CF8E9A969ABFEFE1EEF4E0B150E040FD
:10019000F040E1F700C000003981EA802B818C81BA
:1001A000932F9E0D920F980F4D81941337C08B01A2
:1001B000F12CF32A682F70E0722B772374F47F7789
:1001C00080E090E0B6D120E030E040E251E418D188
:1001D00090587ED1D6016C930BC080E090E0A9D1FD
:1001E00020E030E040E251E40BD172D1F6016083AF
:1001F000B70180E090E09DD120E030E040E251E4A2
:10020000FFD066D1D8016C9380E009C08FEF07C0A2
:100210008FEF05C08FEF03C08FEF01C08FEF0F90FE
:100220000F900F900F900F90DF91CF911F910F9132
:10023000FF90EF90DF90CF90089531CF0895CF9346
:10024000DF93CDB7DEB7C05DD1090FB6F894DEBF3E
:100250000FBECDBF85D0C753DF4F188219821A82D7
:100260001B82C95CD040C353DF4F188219821A82A7
:100270001B82CD5CD040BE0163537F4FCE018753BC
:100280009F4FDBDF8F3F69F1C753DF4F6881798173
:100290008A819B81C95CD0401BD1DC01CB014AE043
:1002A000BE016F5F7F4FD3D161E080E087D0CE0188
:1002B000019698D0C353DF4F688179818A819B81F1
:1002C000CD5CD04005D1DC01CB014AE0BE016B59C9
:1002D0007F4FBDD162E080E071D0CE018B599F4F3E
:1002E00081D02FEF8DE399E4215080409040E1F7D9
:1002F00000C00000C0CFDD9A81E38A95F1F70000CD
:10030000DD9808959BB3907F9BBB9BB382958F70C4
:10031000982B9BBBF0CF0895CF93C82FDC9AF2DFC8
:100320008C2F8295807FEEDF81E78A95F1F70000C0
:10033000CF910895CF93C82FDC98E4DF8C2F82955E
:10034000807FE0DF87E68A95F1F70000CF9108957E
:1003500081E0F0DF86E69EE00197F1F70000089566
:100360008AB38F638ABB8BB3807C8BBB8FEF9BE69A
:100370000197F1F700C0000080E3C4DF8FEF93E244
:100380000197F1F700C00000B6DF83E397E0019723
:10039000F1F7B1DF83E397E00197F1F780E2B2DF95
:1003A0008FEF93E20197F1F700C0000088E2C2DF0F
:1003B0008CE0C0DF86E0BEDFCBCF0895623059F01D
:1003C00018F4613031F00895633039F0643039F059
:1003D0000895805805C0805403C0805701C08053E1
:1003E000A9CF0895CF93DF93EC018881882329F06A
:1003F000219692DF89918111FCCFDF91CF910895F1
:100400000CD0EBC0E3D040F0DAD030F021F45F3F05
:1004100019F0CCC0511115C1CFC0F0D098F3992379
:10042000C9F35523B1F3951B550BBB27AA276217B8
:100430007307840738F09F5F5F4F220F331F441FFD
:10044000AA1FA9F333D00E2E3AF0E0E830D0915035
:100450005040E695001CCAF729D0FE2F27D0660F22
:10046000771F881FBB1F261737074807AB07B0E861
:1004700009F0BB0B802DBF01FF2793585F4F2AF077
:100480009E3F510568F092C0DCC05F3FECF3983EA0
:10049000DCF3869577956795B795F7959F5FC9F7D4
:1004A000880F911D9695879597F90895E1E0660F5D
:1004B000771F881FBB1F621773078407BA0720F0D6
:1004C000621B730B840BBA0BEE1F88F7E09508953F
:1004D00004D06894B111B5C0089598D088F09F57A2
:1004E00090F0B92F9927B751A0F0D1F0660F771F80
:1004F000881F991F1AF0BA95C9F712C0B13081F060
:100500009FD0B1E008959CC0672F782F8827B85FEF
:1005100039F0B93FCCF3869577956795B395D9F7C0
:100520003EF490958095709561957F4F8F4F9F4FCA
:100530000895E89409C097FB3EF4909580957095D6
:1005400061957F4F8F4F9F4F9923A9F0F92F96E91F
:10055000BB279395F695879577956795B795F11194
:10056000F8CFFAF4BB0F11F460FF1BC06F5F7F4F31
:100570008F4F9F4F16C0882311F096E911C0772343
:1005800021F09EE8872F762F05C0662371F096E84C
:10059000862F70E060E02AF09A95660F771F881F1B
:1005A000DAF7880F9695879597F9089597F99F67D9
:1005B00080E870E060E008959FEF80EC08950024EB
:1005C0000A941616170618060906089500240A94B8
:1005D00012161306140605060895092E0394000C3E
:1005E00011F4882352F0BB0F40F4BF2B11F460FFCD
:1005F00004C06F5F7F4F8F4F9F4F089557FD9058F6
:10060000440F551F59F05F3F71F04795880F97FBD6
:10061000991F61F09F3F79F0879508951216130690
:100620001406551FF2CF4695F1DF08C016161706BF
:100630001806991FF1CF86957105610508940895F4
:10064000E894BB2766277727CB0197F90895BB2746
:100650004A3031F4992322F4BDE2909581959F4F61
:1006600001C0BB27FB015527AA27880F991FAA1F86
:10067000A41710F0A41B83955051B9F7A05DAA33BD
:1006800008F0A95DA193009779F7B111B193119288
:10069000CB0100C0DC01FC01672F71917723E1F7EA
:1006A000329704C07C916D9370836291AE17BF073F
:0806B000C8F30895F894FFCF90
:00000001FF
