:100000000C942A000C9447000C9447000C94470071
:100010000C9447000C9447000C9447000C94470044
:100020000C9447000C9447000C9447000C94470034
:100030000C9447000C9447000C9447000C94470024
:100040000C9447000C9447000C9447000C94470014
:100050000C94470011241FBECFE5D8E0DEBFCDBF12
:1000600010E0A0E6B0E0E8E6F4E102C005900D92F1
:10007000A43BB107D9F720E0A4EBB0E001C01D928A
:10008000A43CB207E1F70E9403080C94320A0C94D6
:100090000000009731F025E02A95F1F70000019764
:1000A000F8CF0895009741F0EFE9FFE03197F1F7BD
:1000B00000C000000197F6CF0895982F977086959D
:1000C00086958695813001F130F08230B1F1833030
:1000D00009F44CC008954AB321E030E0662349F0AA
:1000E000B90102C0660F771F9A95E2F7CB01842B06
:1000F00009C0B90102C0660F771F9A95E2F7CB01DC
:10010000809584238ABB089547B321E030E06623BD
:1001100049F0B90102C0660F771F9A95E2F7CB014B
:10012000842B09C0B90102C0660F771F9A95E2F7C8
:10013000CB018095842387BB089544B321E030E050
:10014000662349F0B90102C0660F771F9A95E2F75E
:10015000CB01842B09C0B90102C0660F771F9A95A5
:10016000E2F7CB018095842384BB089541B321E05D
:1001700030E0662349F0B90102C0660F771F9A95F7
:10018000E2F7CB01842B09C0B90102C0660F771FCB
:100190009A95E2F7CB018095842381BB0895982F2F
:1001A0009770869586958695813001F130F0823082
:1001B000B1F1833009F44CC008954BB321E030E035
:1001C000662349F0B90102C0660F771F9A95E2F7DE
:1001D000CB01842B09C0B90102C0660F771F9A9525
:1001E000E2F7CB01809584238BBB089548B321E0CF
:1001F00030E0662349F0B90102C0660F771F9A9577
:10020000E2F7CB01842B09C0B90102C0660F771F4A
:100210009A95E2F7CB018095842388BB089545B376
:1002200021E030E0662349F0B90102C0660F771F74
:100230009A95E2F7CB01842B09C0B90102C0660F81
:10024000771F9A95E2F7CB018095842385BB0895AB
:1002500042B321E030E0662349F0B90102C0660FE5
:10026000771F9A95E2F7CB01842B09C0B90102C030
:10027000660F771F9A95E2F7CB018095842382BBA6
:100280000895282F2770869586958695813049F0A8
:1002900030F0823041F0833079F480B305C089B307
:1002A00003C086B301C083B390E002C095958795E3
:1002B0002A95E2F78170089580E008950F931F93C7
:1002C000CF93C82F84FB662760F904EB10E0F80198
:1002D00082850E94CF00C5FB662760F9F8018385FF
:1002E0000E94CF00C6FB662760F9F80184850E9452
:1002F000CF006C2F661F6627661FF8018585CF919A
:100300001F910F910C94CF00CF93DF93C4EBD0E0FB
:1003100060E08B810E94CF0060E08C810E94CF0062
:1003200061E08D810E94CF008AE090E00E94490048
:1003300060E08D81DF91CF910C94CF000F931F93DC
:10034000CF93C82F682F617004EB10E0F80186810D
:100350000E94CF00C1FB662760F9F80187810E94E7
:10036000CF00C2FB662760F9F80180850E94CF00AC
:10037000C3FB662760F9F8018185CF911F910F912A
:100380000C94CF00CF93DF93C4EBD0E061E08B817E
:100390000E94CF0060E08C810E94CF0061E08D81DF
:1003A0000E94CF008AE090E00E94490060E08D81C9
:1003B000DF91CF910C94CF00CF938091B8008F3F05
:1003C00009F444C060E08091C1000E945D0060E0DB
:1003D0008091B7000E94CF0061E08091B8000E9438
:1003E000CF0060E08091B9000E94CF008AE090E0E9
:1003F0000E94490061E08091B9000E94CF008AE02C
:1004000090E00E9449008091C1000E944101C82FE4
:100410008091B600843091F460E08091B9000E9430
:10042000CF008AE090E00E94490061E08091B9002D
:100430000E94CF008AE090E00E944900C111D1CF14
:1004400061E08091C100CF910C945D0081E090E06B
:10045000CF910C9452008F929F92AF92BF92CF9205
:10046000DF92EF92FF920F931F93CF93DF93CDB75D
:10047000DEB7982EB62ED42E822FFF841889909244
:10048000B7006093B8004093B9002093BA0000937E
:10049000BB00E092BC00C092BD00A092BE00809262
:1004A000BF00F092C0001093C1002F3F39F00F3F02
:1004B00029F09FEFE91611F0C91204C084E080937F
:1004C000B60012C098E09093B60061E00E945D0013
:1004D00061E0802F0E945D0061E08E2D0E945D0032
:1004E00061E08C2D0E945D0061E0892D0E945D001D
:1004F00061E08B2D0E945D0061E08D2D0E945D000A
:1005000061E08A2D0E945D0061E0882D0E945D00FF
:1005100061E08F2D0E945D0061E0812FDF91CF911E
:100520001F910F91FF90EF90DF90CF90BF90AF9011
:100530009F908F900C945D00CF93C82F0E94DC0198
:100540008091B600883021F48C2F0E949E0107C054
:100550008C2F0E945E010E948401C295C07F8C2F67
:100560000E945E01CF910C9484019091B400891790
:1005700058F41092C2008093C300E82FF0E0E05AD4
:10058000FF4F80810C949C02089581E00E949C02A0
:1005900080E00C94B5026093B5008093B400833082
:1005A00040F06F7080E9860F809362006053609323
:1005B000630084E690E00E9452008091B60088308B
:1005C00011F488E327C0843039F580E30E945E018E
:1005D0000E94840184E690E00E94520080E30E9421
:1005E0005E010E94840188EC90E00E94490080E353
:1005F0000E945E010E94840188EC90E00E94490004
:1006000080E20E945E010E94840188EC90E00E94DA
:10061000490088E20E949C028EE00E949C020C9499
:10062000C5028091C3008F5F8093C3001092C20007
:100630009091B400891710F01092C300E091C300AC
:10064000F0E0E05AFF4F80810C949C02CF93C82FBA
:100650009091B5008091C200891760F4CA3051F0C2
:100660000E94DC018091B600883049F48C2F0E94F2
:100670009E010CC00E941103CA3091F0F1CF8C2F63
:100680000E945E010E94C201C295C07F8C2F0E9411
:100690005E010E94C2018091C2008F5F8093C20000
:1006A000CF910895CF92DF92EF92FF921F93CF9355
:1006B000DF936B017C01142FC1E0D0E01123D9F04E
:1006C0008FEF810FAE0102C0440F551F8A95E2F7EC
:1006D000052E000C660B770B4C215D216E217F21CE
:1006E00081E0452B462B472B09F480E0805D0E947A
:1006F00026031150E3CFDF91CF911F91FF90EF9030
:10070000DF90CF900895CF93DF93EC0189918823F8
:1007100019F00E942603FACFDF91CF9108958F92AE
:100720009F92AF92BF92CF92DF92EF92FF920F9380
:100730001F93CF93DF93CDB7DEB72A970FB6F89408
:10074000DEBF0FBECDBFD82ECB01BA01022F22E0F3
:10075000D21215C0402F2A960FB6F894DEBF0FBEF6
:10076000CDBFDF91CF911F910F91FF90EF90DF9060
:10077000CF90BF90AF909F908F900C9452036115D3
:1007800071058105910549F0FE0131967F0110E068
:100790008D2C912CA12CB12C2AC080E32A960FB667
:1007A000F894DEBF0FBECDBFDF91CF911F910F91A7
:1007B000FF90EF90DF90CF90BF90AF909F908F9081
:1007C0000C942603611571058105910599F0C62EDB
:1007D000A50194010E94EE09CA01B901D29EC01878
:1007E0001124F701C0821F5FFFEFEF1AFF0A1013F9
:1007F000E9CF0FC00B3068F4F7011082F4CFFE018F
:10080000E10FF11D80818A3038F0895C0E94260357
:1008100011501111F4CF02C0805DF8CF2A960FB6A7
:10082000F894DEBF0FBECDBFDF91CF911F910F9126
:10083000FF90EF90DF90CF90BF90AF909F908F9000
:1008400008954F925F926F927F92AF92BF92CF9234
:10085000DF92FF920F931F93CF93DF93CDB7DEB755
:10086000FE017096A190B1908F01F50180818823DF
:1008700009F423C1853209F008C165012FEFC21ABE
:10088000D20AF501818190ED980F9A3008F0B1C03D
:10089000F12C90ED980F9A3058F4FAE0FF9E900DED
:1008A0001124F92E2FEFC21AD20AF6018081F1CF5E
:1008B000883509F4A3C0A0F4833429F138F48532D3
:1008C00009F4DFC0823409F4BBC0E2C0833509F407
:1008D000CBC0853509F473C0843409F0D9C039C060
:1008E0008436F1F020F4823609F49BC0E2C08537EB
:1008F00009F451C0883709F472C0B4C0893560F476
:10090000833409F052C05801F2E0AF0EB11CF80177
:1009100080810E942603B1C08436B1F5FF24FA9489
:100920005801F2E0AF0EB11CF8010081118117FFF0
:1009300006C01195019511098DE20E942603A801B8
:10094000110F660B770B44C0843409F0A1C0FF245B
:10095000FA945801F4E0AF0EB11CF80140805180C8
:100960006280738077FE0BC07094609450944094C2
:10097000411C511C611C711C8DE20E9426032F2D0D
:10098000B301A2018AE045C0853608F445C0853729
:1009900009F5FF24FA945801F2E0AF0EB11CF801FA
:1009A0004081518160E070E013C0843408F467C076
:1009B000833509F459C0853539F6FF24FA94580176
:1009C000F4E0AF0EB11CF801408151816281738166
:1009D0002F2DD8CF883709F045C0FF24FA9458014D
:1009E000F2E0AF0EB11CF8014081518160E070E08F
:1009F0000EC0883509F082CFFF24FA945801F4E044
:100A0000AF0EB11CF80140815181628173812F2D9D
:100A100080E10E948F0331C0823609F04AC0FF2472
:100A2000FA945801F2E0AF0EB11CF80160817181B7
:100A3000FFEFFF1202C030E1F32E80E090E00EC025
:100A4000580124E0A20EB11CF801608171818281FD
:100A50009381FFEFFF1202C020E1F22E4F2D0E9482
:100A600052030BC08337A1F4580122E0A20EB11C3F
:100A7000F801808191810E948303850109C085323C
:100A800061F485E20E94260303C00E9426036501EB
:100A90005601FFEFAF1ABF0AE8CE8234C9F75801FA
:100AA000F4E0AF0EB11CF801608171818281938105
:100AB000D3CF833609F427CFEBCFDF91CF911F91AE
:100AC0000F91FF90DF90CF90BF90AF907F906F908D
:100AD0005F904F900895CF92DF92EF92FF926B015B
:100AE0007C01DC01CB0180569940A109B109813A12
:100AF000984BA140B10598F4A8EFBFEFA70196016C
:100B00000E94130A7C5D8B409F4FE4E0220F331F4D
:100B1000441F551FEA95D1F70E94EE0902C027E64F
:100B200030E029B930BDFF90EF90DF90CF9008956D
:100B300028E12AB926E820BD1BB80C946B055F9B01
:100B4000FECF8CB108955D9BFECF8CB90895CF93F5
:100B5000DF93EC018991882319F00E94A305FACF55
:100B6000DF91CF9108950F931F93CF93DF938C0163
:100B7000C0E00E949F05D82F0E94A305DD3071F0D0
:100B8000DA3061F0D83021F4CC2311F0C150F1CF2C
:100B9000F801EC0FF11DD083CF5FEBCFF801EC0F24
:100BA000F11D10828C2FDF91CF911F910F9108952D
:100BB0004F925F926F927F928F929F92AF92BF926D
:100BC000CF92DF92EF92FF920F931F93CF93DF9319
:100BD000CDB7DEB72A970FB6F894DEBF0FBECDBFF4
:100BE000982E6A017B01122F82E0981221C0AA245C
:100BF000A394B12C112309F461C08FEF810FA501DB
:100C000002C0440F551F8A95E2F7052E000C660BB3
:100C1000770B4C215D216E217F2181E0452B462BF6
:100C2000472B09F480E0805D0E94A3051150E2CFBC
:100C3000452B462B472B11F400E03EC0FE013196B8
:100C40005F0100E0492C512C612C712C101749F1E7
:100C5000C114D104E104F10479F08C2CC701B60170
:100C6000A30192010E94EE0969017A01929E801807
:100C70001124F501808204C01B3038F4F501108284
:100C80000F5FFFEFAF1ABF0AE1CF102F0AC0FE01BE
:100C9000E10FF11D80818A3038F0895C0E94A30544
:100CA00011501111F4CF0AC0805DF8CF0A3031F035
:100CB00080E30E94A3050F5F0113F8CF2A960FB6B9
:100CC000F894DEBF0FBECDBFDF91CF911F910F9182
:100CD000FF90EF90DF90CF90BF90AF909F908F905C
:100CE0007F906F905F904F9008958F929F92AF92F8
:100CF000BF92CF92DF92EF92FF926B017C010E9434
:100D0000C4084B015C012FEFAB01BC018AE00E94DB
:100D1000D8058EE20E94A305C501B4010E94F30824
:100D20009B01AC01C701B6010E94570820E034E2E4
:100D300044E759E40E9481090E94C408AB01BC0148
:100D40002FEF8AE0FF90EF90DF90CF90BF90AF90B1
:100D50009F908F900C94D8054F925F926F927F92E4
:100D6000AF92BF92CF92DF92FF920F931F93CF93D8
:100D7000DF93CDB7DEB7FE017096A190B1908F01E1
:100D8000F5018081882309F430C1853209F012C150
:100D900065018FEFC81AD80AF501818190ED980F8F
:100DA0009A3008F0B4C0F12C90ED980F9A3058F4B6
:100DB000FAE0FF9E900D1124F92E8FEFC81AD80A81
:100DC000F6018081F1CF883509F4A6C070F484342F
:100DD00009F44FC018F48234D9F4BEC0833509F445
:100DE000DEC0853509F478C0CAC0863609F4C9C0AA
:100DF00040F4833681F0843621F1823609F0DDC07B
:100E00009CC0853709F453C0883709F476C0C5C043
:100E1000833408F4E4C05801F2E0AF0EB11CF801CD
:100E200080810E94A305C4C08935F8F0863609F494
:100E3000A8C0C8F5833679F3843609F079C0FF2459
:100E4000FA945801F2E0AF0EB11CF8010081118153
:100E500017FF06C01195019511098DE20E94A305A7
:100E6000A801110F660B770B40C0843451F5FF24A5
:100E7000FA945801F4E0AF0EB11CF80140805180A3
:100E80006280738077FE0BC070946094509440949D
:100E9000411C511C611C711C8DE20E94A3052F2D69
:100EA000B301A20123C0853719F5FF24FA94580134
:100EB000F2E0AF0EB11CF8014081518160E070E0BA
:100EC00014C0853408F47EC0833509F468C08535C4
:100ED00009F055C0FF24FA945801F4E0AF0EB11C9C
:100EE000F80140815181628173812F2D8AE044C0D5
:100EF000883709F052C0FF24FA945801F2E0AF0E8F
:100F0000B11CF8014081518160E070E00EC088356D
:100F100009F08ACFFF24FA945801F4E0AF0EB11C17
:100F2000F80140815181628173812F2D80E124C0BD
:100F3000823609F042C0FF24FA945801F2E0AF0E65
:100F4000B11CF80140815181FFEFFF1202C090E116
:100F5000F92E60E070E00EC0580184E0A80EB11CCC
:100F6000F8014081518162817381FFEFFF1202C05D
:100F700080E2F82E2F2D82E00E94D80519C0863419
:100F8000E1F4580184E0A80EB11CF8016081718180
:100F9000828193810E9475060BC0833771F45801DA
:100FA000F2E0AF0EB11CF801808191810E94A7058B
:100FB000850103C00E94A30565015601FFEFAF1A2A
:100FC000BF0ADECE823409F023CF5801F4E0AF0E21
:100FD000B11CF8014081518162817381C9CF853292
:100FE00061F785E20E94A305E8CFDF91CF911F91C1
:100FF0000F91FF90DF90CF90BF90AF907F906F9058
:101000005F904F900895CF93DF93CDB7DEB7E2970F
:101010000FB6F894DEBF0FBECDBF8FE08F938EE08A
:101020008F938DE0882E9CE0A92ECC24CA94EE24C8
:10103000EA940FEF2FEF4AE069E088E00E942B026C
:1010400060E182E00E94CB0260E875E280E090E01F
:101050000E94980584E690E00E9483030F900F9011
:101060008E010F5F1F4F24E8A22E20E0B22E34EA3B
:10107000E32E30E0F32EC8010E94B305D82E1F9254
:101080008F931F930F93BF92AF920E94AC060E9462
:10109000C5021F92DF921F930F93FF92EF920E945F
:1010A00021040FB6F894DEBF0FBECDBFE4CF505879
:1010B000BB27AA270E946F080C9447090E94390990
:1010C00038F00E94400920F039F49F3F19F426F4CB
:1010D0000C9436090EF4E095E7FB0C943009E92FE7
:1010E0000E94580958F3BA176207730784079507D7
:1010F00020F079F4A6F50C947A090EF4E0950B2E05
:10110000BA2FA02D0B01B90190010C01CA01A00159
:101110001124FF27591B99F0593F50F4503E68F1B4
:101120001A16F040A22F232F342F4427585FF3CFF5
:10113000469537952795A795F0405395C9F77EF4C6
:101140001F16BA0B620B730B840BBAF09150A1F00F
:10115000FF0FBB1F661F771F881FC2F70EC0BA0F95
:10116000621F731F841F48F4879577956795B7951D
:10117000F7959E3F08F0B0CF9395880F08F0992718
:10118000EE0F9795879508950E94600988F09F5704
:1011900098F0B92F9927B751B0F0E1F0660F771F9B
:1011A000881F991F1AF0BA95C9F714C0B13091F091
:1011B0000E947A09B1E008950C947A09672F782F7C
:1011C0008827B85F39F0B93FCCF386957795679556
:1011D000B395D9F73EF490958095709561957F4FC2
:1011E0008F4F9F4F0895E89409C097FB3EF4909568
:1011F0008095709561957F4F8F4F9F4F9923A9F0F0
:10120000F92F96E9BB279395F6958795779567957E
:10121000B795F111F8CFFAF4BB0F11F460FF1BC0C2
:101220006F5F7F4F8F4F9F4F16C0882311F096E955
:1012300011C0772321F09EE8872F762F05C0662303
:1012400071F096E8862F70E060E02AF09A95660FBC
:10125000771F881FDAF7880F9695879597F9089575
:1012600097F99F6780E870E060E008959FEF80EC59
:10127000089500240A9416161706180609060895FC
:1012800000240A9412161306140605060895092E62
:101290000394000C11F4882352F0BB0F40F4BF2BD1
:1012A00011F460FF04C06F5F7F4F8F4F9F4F089511
:1012B00057FD9058440F551F59F05F3F71F0479507
:1012C000880F97FB991F61F09F3F79F087950895EC
:1012D000121613061406551FF2CF4695F1DF08C00B
:1012E000161617061806991FF1CF86957105610528
:1012F00008940895E894BB2766277727CB0197F9D0
:1013000008950E9494090C9447090E94390938F005
:101310000E94400920F0952311F00C9430090C94A0
:10132000360911240C947B090E94580970F3959F8B
:10133000C1F3950F50E0551F629FF001729FBB27CC
:10134000F00DB11D639FAA27F00DB11DAA1F649F68
:101350006627B00DA11D661F829F2227B00DA11D1B
:10136000621F739FB00DA11D621F839FA00D611DA1
:10137000221F749F3327A00D611D231F849F600DC2
:10138000211D822F762F6A2F11249F5750409AF0EB
:10139000F1F088234AF0EE0FFF1FBB1F661F771F77
:1013A000881F91505040A9F79E3F510580F00C9442
:1013B00030090C947B095F3FE4F3983ED4F38695A3
:1013C00077956795B795F795E7959F5FC1F7FE2BE2
:1013D000880F911D9695879597F90895A1E21A2E89
:1013E000AA1BBB1BFD010DC0AA1FBB1FEE1FFF1FC9
:1013F000A217B307E407F50720F0A21BB30BE40B19
:10140000F50B661F771F881F991F1A9469F760955F
:101410007095809590959B01AC01BD01CF01089519
:10142000B7FF0C94180A0E94180A821B930B0895A8
:101430000E94230AA59F900DB49F900DA49F800D3C
:10144000911D11240895A29FB001B39FC001A39FD5
:10145000700D811D1124911DB29F700D811D1124ED
:08146000911D0895F894FFCFDF
:1014680080C090D073656E64206461746120667278
:101478006F6D202073657269616C207465726D6987
:101488006E616C0052656365697665642053747299
:10149800696E673A257320202073697A653D253285
:1014A800640A0D007374723A25732073697A653D76
:0414B8002532640075
:00000001FF
